:040000000128F42FB0
:100DFA00FE0012001E00FE0BFE2E0034493432346F
:100E0A004334203463346F346D3400344C34433407
:100E1A004434203454346534733474340034F00068
:100E2A0020009111700824009100200091190800F7
:100E3A001A2FF300240016141618212F73081427EA
:100E4A00710814277208142724001615161D0800A5
:100E5A002B2FF6004030F4007408F1007608F500F4
:100E6A007508F2007C301E271030890B3A2F0032A9
:100E7A000800F800780886008701010803190800AD
:100E8A0078088600870101082E270130F7007708C5
:100E9A00F8073F2F770884007808850012000319A5
:100EAA000800770884007808850000082E2701309A
:100EBA00F7070030F83D4F2FF500F1017508F400EF
:100ECA007408F2007C301E277508FC390319722F4A
:100EDA001030890B6E2F003208000330F40098306E
:100EEA00890B752FF40B752F0800F900832F8030BA
:100EFA007F2FC030F7007708FA00942F790803395A
:100F0A00F700F8017808003A03198C2F942F770814
:100F1A00003A03197C2F013A03197E2F942F760881
:100F2A00F7007708FA077A08612708008230F60086
:100F3A00DE30890B9E2FF60B9E2F38306127393011
:100F4A00612714306127783061275E3061276B3062
:100F5A0061278230F600DE30890BB12FF60BB12FF4
:100F6A008230F600DE30890BB82FF60BB82F3830F6
:100F7A0061270C3061270130612708002030860084
:100F8A000030870029308400003085000930FB00DA
:100F9A0016001A00FB0BCD2F6A30210099002000A1
:100FAA008C01FF3021008C0023008C01FF302400CB
:100FBA008C0021009513803024009400093092009F
:100FCA00283095009B2729303E27F601F60A013082
:100FDA007A270330F7008730F8004F27F32F0B30BA
:100FEA008400873085002030860000308700093071
:060FFA00FD262000C32FBC
:020000040001F9
:04000E00A4CFFFDE9E
:00000001FF
